{
  "contractName": "CarDeed",
  "abi": [
    {
      "inputs": [
        {
          "internalType": "uint256",
          "name": "",
          "type": "uint256"
        }
      ],
      "name": "cars",
      "outputs": [
        {
          "internalType": "uint256",
          "name": "id",
          "type": "uint256"
        },
        {
          "internalType": "string",
          "name": "brand",
          "type": "string"
        },
        {
          "internalType": "uint256",
          "name": "price",
          "type": "uint256"
        },
        {
          "internalType": "string",
          "name": "buyer",
          "type": "string"
        },
        {
          "internalType": "string",
          "name": "seller",
          "type": "string"
        }
      ],
      "stateMutability": "view",
      "type": "function",
      "constant": true
    },
    {
      "inputs": [],
      "name": "nextId",
      "outputs": [
        {
          "internalType": "uint256",
          "name": "",
          "type": "uint256"
        }
      ],
      "stateMutability": "view",
      "type": "function",
      "constant": true
    },
    {
      "inputs": [
        {
          "internalType": "string",
          "name": "_brand",
          "type": "string"
        },
        {
          "internalType": "uint256",
          "name": "_price",
          "type": "uint256"
        },
        {
          "internalType": "string",
          "name": "_buyer",
          "type": "string"
        },
        {
          "internalType": "string",
          "name": "_seller",
          "type": "string"
        }
      ],
      "name": "addCarDetails",
      "outputs": [],
      "stateMutability": "nonpayable",
      "type": "function"
    },
    {
      "inputs": [
        {
          "internalType": "uint256",
          "name": "_id",
          "type": "uint256"
        }
      ],
      "name": "getCarDetails",
      "outputs": [
        {
          "internalType": "string",
          "name": "",
          "type": "string"
        },
        {
          "internalType": "uint256",
          "name": "",
          "type": "uint256"
        },
        {
          "internalType": "string",
          "name": "",
          "type": "string"
        },
        {
          "internalType": "string",
          "name": "",
          "type": "string"
        }
      ],
      "stateMutability": "view",
      "type": "function",
      "constant": true
    },
    {
      "inputs": [
        {
          "internalType": "uint256",
          "name": "_id",
          "type": "uint256"
        }
      ],
      "name": "deleteCarDeed",
      "outputs": [],
      "stateMutability": "nonpayable",
      "type": "function"
    },
    {
      "inputs": [],
      "name": "getAllDeeds",
      "outputs": [
        {
          "components": [
            {
              "internalType": "uint256",
              "name": "id",
              "type": "uint256"
            },
            {
              "internalType": "string",
              "name": "brand",
              "type": "string"
            },
            {
              "internalType": "uint256",
              "name": "price",
              "type": "uint256"
            },
            {
              "internalType": "string",
              "name": "buyer",
              "type": "string"
            },
            {
              "internalType": "string",
              "name": "seller",
              "type": "string"
            }
          ],
          "internalType": "struct CarDeed.Car[]",
          "name": "",
          "type": "tuple[]"
        }
      ],
      "stateMutability": "view",
      "type": "function",
      "constant": true
    }
  ],
  "bytecode": "0x60806040526001805534801561001457600080fd5b506114b4806100246000396000f3fe608060405234801561001057600080fd5b50600436106100625760003560e01c80630f5adf0414610067578063472ec4541461008357806361b8ce8c146100b65780636e914373146100d4578063ba9614b6146100f0578063f7746e361461010e575b600080fd5b610081600480360381019061007c9190610e20565b610142565b005b61009d60048036038101906100989190610edb565b610268565b6040516100ad9493929190610f9f565b60405180910390f35b6100be610548565b6040516100cb9190610ff9565b60405180910390f35b6100ee60048036038101906100e99190610edb565b61054e565b005b6100f8610719565b60405161010591906111b3565b60405180910390f35b61012860048036038101906101239190610edb565b610942565b6040516101399594939291906111d5565b60405180910390f35b82611388811015610188576040517f08c379a000000000000000000000000000000000000000000000000000000000815260040161017f90611289565b60405180910390fd5b60006040518060a001604052806001548152602001878152602001868152602001858152602001848152509080600181540180825580915050600190039060005260206000209060050201600090919091909150600082015181600001556020820151816001019080519060200190610202929190610b20565b50604082015181600201556060820151816003019080519060200190610229929190610b20565b506080820151816004019080519060200190610246929190610b20565b5050506001600081548092919061025c906112d8565b91905055505050505050565b6060600060608060005b60008054905081101561050557856000828154811061029457610293611320565b5b906000526020600020906005020160000154036104f257600081815481106102bf576102be611320565b5b9060005260206000209060050201600101600082815481106102e4576102e3611320565b5b9060005260206000209060050201600201546000838154811061030a57610309611320565b5b90600052602060002090600502016003016000848154811061032f5761032e611320565b5b906000526020600020906005020160040183805461034c9061137e565b80601f01602080910402602001604051908101604052809291908181526020018280546103789061137e565b80156103c55780601f1061039a576101008083540402835291602001916103c5565b820191906000526020600020905b8154815290600101906020018083116103a857829003601f168201915b505050505093508180546103d89061137e565b80601f01602080910402602001604051908101604052809291908181526020018280546104049061137e565b80156104515780601f1061042657610100808354040283529160200191610451565b820191906000526020600020905b81548152906001019060200180831161043457829003601f168201915b505050505091508080546104649061137e565b80601f01602080910402602001604051908101604052809291908181526020018280546104909061137e565b80156104dd5780601f106104b2576101008083540402835291602001916104dd565b820191906000526020600020905b8154815290600101906020018083116104c057829003601f168201915b50505050509050945094509450945050610541565b80806104fd906112d8565b915050610272565b506040517f08c379a0000000000000000000000000000000000000000000000000000000008152600401610538906113fb565b60405180910390fd5b9193509193565b60015481565b60005b6000805490508110156106da57816000828154811061057357610572611320565b5b906000526020600020906005020160000154036106c7576000600160008054905061059e919061141b565b815481106105af576105ae611320565b5b9060005260206000209060050201600082815481106105d1576105d0611320565b5b90600052602060002090600502016000820154816000015560018201816001019080546105fd9061137e565b610608929190610ba6565b506002820154816002015560038201816003019080546106279061137e565b610632929190610ba6565b5060048201816004019080546106479061137e565b610652929190610ba6565b5090505060008054806106685761066761144f565b5b60019003818190600052602060002090600502016000808201600090556001820160006106959190610c33565b60028201600090556003820160006106ad9190610c33565b6004820160006106bd9190610c33565b5050905550610716565b80806106d2906112d8565b915050610551565b506040517f08c379a000000000000000000000000000000000000000000000000000000000815260040161070d906113fb565b60405180910390fd5b50565b60606000805480602002602001604051908101604052809291908181526020016000905b8282101561093957838290600052602060002090600502016040518060a00160405290816000820154815260200160018201805461077a9061137e565b80601f01602080910402602001604051908101604052809291908181526020018280546107a69061137e565b80156107f35780601f106107c8576101008083540402835291602001916107f3565b820191906000526020600020905b8154815290600101906020018083116107d657829003601f168201915b50505050508152602001600282015481526020016003820180546108169061137e565b80601f01602080910402602001604051908101604052809291908181526020018280546108429061137e565b801561088f5780601f106108645761010080835404028352916020019161088f565b820191906000526020600020905b81548152906001019060200180831161087257829003601f168201915b505050505081526020016004820180546108a89061137e565b80601f01602080910402602001604051908101604052809291908181526020018280546108d49061137e565b80156109215780601f106108f657610100808354040283529160200191610921565b820191906000526020600020905b81548152906001019060200180831161090457829003601f168201915b5050505050815250508152602001906001019061073d565b50505050905090565b6000818154811061095257600080fd5b906000526020600020906005020160009150905080600001549080600101805461097b9061137e565b80601f01602080910402602001604051908101604052809291908181526020018280546109a79061137e565b80156109f45780601f106109c9576101008083540402835291602001916109f4565b820191906000526020600020905b8154815290600101906020018083116109d757829003601f168201915b505050505090806002015490806003018054610a0f9061137e565b80601f0160208091040260200160405190810160405280929190818152602001828054610a3b9061137e565b8015610a885780601f10610a5d57610100808354040283529160200191610a88565b820191906000526020600020905b815481529060010190602001808311610a6b57829003601f168201915b505050505090806004018054610a9d9061137e565b80601f0160208091040260200160405190810160405280929190818152602001828054610ac99061137e565b8015610b165780601f10610aeb57610100808354040283529160200191610b16565b820191906000526020600020905b815481529060010190602001808311610af957829003601f168201915b5050505050905085565b828054610b2c9061137e565b90600052602060002090601f016020900481019282610b4e5760008555610b95565b82601f10610b6757805160ff1916838001178555610b95565b82800160010185558215610b95579182015b82811115610b94578251825591602001919060010190610b79565b5b509050610ba29190610c73565b5090565b828054610bb29061137e565b90600052602060002090601f016020900481019282610bd45760008555610c22565b82601f10610be55780548555610c22565b82800160010185558215610c2257600052602060002091601f016020900482015b82811115610c21578254825591600101919060010190610c06565b5b509050610c2f9190610c73565b5090565b508054610c3f9061137e565b6000825580601f10610c515750610c70565b601f016020900490600052602060002090810190610c6f9190610c73565b5b50565b5b80821115610c8c576000816000905550600101610c74565b5090565b6000604051905090565b600080fd5b600080fd5b600080fd5b600080fd5b6000601f19601f8301169050919050565b7f4e487b7100000000000000000000000000000000000000000000000000000000600052604160045260246000fd5b610cf782610cae565b810181811067ffffffffffffffff82111715610d1657610d15610cbf565b5b80604052505050565b6000610d29610c90565b9050610d358282610cee565b919050565b600067ffffffffffffffff821115610d5557610d54610cbf565b5b610d5e82610cae565b9050602081019050919050565b82818337600083830152505050565b6000610d8d610d8884610d3a565b610d1f565b905082815260208101848484011115610da957610da8610ca9565b5b610db4848285610d6b565b509392505050565b600082601f830112610dd157610dd0610ca4565b5b8135610de1848260208601610d7a565b91505092915050565b6000819050919050565b610dfd81610dea565b8114610e0857600080fd5b50565b600081359050610e1a81610df4565b92915050565b60008060008060808587031215610e3a57610e39610c9a565b5b600085013567ffffffffffffffff811115610e5857610e57610c9f565b5b610e6487828801610dbc565b9450506020610e7587828801610e0b565b935050604085013567ffffffffffffffff811115610e9657610e95610c9f565b5b610ea287828801610dbc565b925050606085013567ffffffffffffffff811115610ec357610ec2610c9f565b5b610ecf87828801610dbc565b91505092959194509250565b600060208284031215610ef157610ef0610c9a565b5b6000610eff84828501610e0b565b91505092915050565b600081519050919050565b600082825260208201905092915050565b60005b83811015610f42578082015181840152602081019050610f27565b83811115610f51576000848401525b50505050565b6000610f6282610f08565b610f6c8185610f13565b9350610f7c818560208601610f24565b610f8581610cae565b840191505092915050565b610f9981610dea565b82525050565b60006080820190508181036000830152610fb98187610f57565b9050610fc86020830186610f90565b8181036040830152610fda8185610f57565b90508181036060830152610fee8184610f57565b905095945050505050565b600060208201905061100e6000830184610f90565b92915050565b600081519050919050565b600082825260208201905092915050565b6000819050602082019050919050565b61104981610dea565b82525050565b600082825260208201905092915050565b600061106b82610f08565b611075818561104f565b9350611085818560208601610f24565b61108e81610cae565b840191505092915050565b600060a0830160008301516110b16000860182611040565b50602083015184820360208601526110c98282611060565b91505060408301516110de6040860182611040565b50606083015184820360608601526110f68282611060565b915050608083015184820360808601526111108282611060565b9150508091505092915050565b60006111298383611099565b905092915050565b6000602082019050919050565b600061114982611014565b611153818561101f565b93508360208202850161116585611030565b8060005b858110156111a15784840389528151611182858261111d565b945061118d83611131565b925060208a01995050600181019050611169565b50829750879550505050505092915050565b600060208201905081810360008301526111cd818461113e565b905092915050565b600060a0820190506111ea6000830188610f90565b81810360208301526111fc8187610f57565b905061120b6040830186610f90565b818103606083015261121d8185610f57565b905081810360808301526112318184610f57565b90509695505050505050565b7f4361722070726963652073686f756c642062652062656c6f7720353030300000600082015250565b6000611273601e83610f13565b915061127e8261123d565b602082019050919050565b600060208201905081810360008301526112a281611266565b9050919050565b7f4e487b7100000000000000000000000000000000000000000000000000000000600052601160045260246000fd5b60006112e382610dea565b91507fffffffffffffffffffffffffffffffffffffffffffffffffffffffffffffffff8203611315576113146112a9565b5b600182019050919050565b7f4e487b7100000000000000000000000000000000000000000000000000000000600052603260045260246000fd5b7f4e487b7100000000000000000000000000000000000000000000000000000000600052602260045260246000fd5b6000600282049050600182168061139657607f821691505b6020821081036113a9576113a861134f565b5b50919050565b7f43617220646f206e6f7420657869737400000000000000000000000000000000600082015250565b60006113e5601083610f13565b91506113f0826113af565b602082019050919050565b60006020820190508181036000830152611414816113d8565b9050919050565b600061142682610dea565b915061143183610dea565b925082821015611444576114436112a9565b5b828203905092915050565b7f4e487b7100000000000000000000000000000000000000000000000000000000600052603160045260246000fdfea26469706673582212208350a8cfc6b4d858564203d05ec4f341cb32b3a5955c2e00935dce48b5e4075064736f6c634300080d0033",
  "immutableReferences": {},
  "source": "// SPDX-License-Identifier: MIT\npragma solidity ^0.8.1;\n\ncontract CarDeed {\n\n    struct Car {\n        uint id;\n        string brand;\n        uint price;\n        string buyer;\n        string seller;\n    }\n\n    modifier checkPrice(uint _price) {\n        require(_price >= 5000, \"Car price should be below 5000\");\n        _;\n    }\n\n    Car[] public cars;\n    uint public nextId = 1;\n\n    function addCarDetails(string memory _brand, uint _price, string memory _buyer, string memory _seller) public checkPrice(_price) {\n        cars.push(Car(nextId,_brand, _price, _buyer, _seller));\n        nextId++;\n    }\n\n    function getCarDetails(uint _id) public view returns(string memory, uint, string memory, string memory) {\n        for (uint i = 0; i < cars.length; i++) {\n            if (cars[i].id == _id) {\n                return (cars[i].brand, cars[i].price, cars[i].buyer, cars[i].seller);\n            }\n            \n        }\n        revert(\"Car do not exist\");\n    }\n\n    function deleteCarDeed(uint _id) public {\n        for(uint i = 0; i < cars.length; i++) {\n            if (cars[i].id == _id) {\n                cars[i] = cars[cars.length - 1];\n\n                cars.pop();\n                return;\n            }\n            \n        }\n        revert(\"Car do not exist\");\n    }\n\n    function getAllDeeds() public view returns(Car[] memory ) {\n        return cars;\n    }\n}",
  "sourcePath": "/home/webcloud/apps/smart-contracts/carDeed-dapp/contracts/CarDeed.sol",
  "compiler": {
    "name": "solc",
    "version": "0.8.13+commit.abaa5c0e.Emscripten.clang"
  },
  "schemaVersion": "3.4.7",
  "updatedAt": "2023-03-09T15:08:58.226Z",
  "networkType": "ethereum",
  "devdoc": {
    "kind": "dev",
    "methods": {},
    "version": 1
  },
  "userdoc": {
    "kind": "user",
    "methods": {},
    "version": 1
  }
}